{
  "_format": "hh-sol-artifact-1",
  "contractName": "Ecommerce",
  "sourceName": "contracts/Ecommerce.sol",
  "abi": [
    {
      "inputs": [],
      "stateMutability": "nonpayable",
      "type": "constructor"
    },
    {
      "inputs": [
        {
          "internalType": "uint256",
          "name": "_price",
          "type": "uint256"
        }
      ],
      "name": "Ecommerce__PriceNotMet",
      "type": "error"
    },
    {
      "inputs": [],
      "name": "Ecommerce__YouAreNoteOwner",
      "type": "error"
    },
    {
      "anonymous": false,
      "inputs": [
        {
          "indexed": true,
          "internalType": "string",
          "name": "_category",
          "type": "string"
        },
        {
          "indexed": true,
          "internalType": "uint256",
          "name": "_timestamp",
          "type": "uint256"
        },
        {
          "indexed": true,
          "internalType": "uint256",
          "name": "_price",
          "type": "uint256"
        },
        {
          "indexed": false,
          "internalType": "uint256",
          "name": "_productId",
          "type": "uint256"
        },
        {
          "indexed": false,
          "internalType": "string",
          "name": "_metadata",
          "type": "string"
        }
      ],
      "name": "productAdded",
      "type": "event"
    },
    {
      "anonymous": false,
      "inputs": [
        {
          "indexed": true,
          "internalType": "address",
          "name": "buyer",
          "type": "address"
        },
        {
          "indexed": true,
          "internalType": "uint256",
          "name": "timestamp",
          "type": "uint256"
        },
        {
          "indexed": false,
          "internalType": "uint256",
          "name": "price",
          "type": "uint256"
        },
        {
          "indexed": false,
          "internalType": "uint256",
          "name": "_productId",
          "type": "uint256"
        }
      ],
      "name": "productBought",
      "type": "event"
    },
    {
      "inputs": [
        {
          "internalType": "uint256",
          "name": "_price",
          "type": "uint256"
        },
        {
          "internalType": "uint32",
          "name": "_quantity",
          "type": "uint32"
        },
        {
          "internalType": "string",
          "name": "_metadata",
          "type": "string"
        },
        {
          "internalType": "string",
          "name": "_category",
          "type": "string"
        }
      ],
      "name": "addProduct",
      "outputs": [],
      "stateMutability": "nonpayable",
      "type": "function"
    },
    {
      "inputs": [
        {
          "internalType": "uint256",
          "name": "_productId",
          "type": "uint256"
        }
      ],
      "name": "buyProduct",
      "outputs": [],
      "stateMutability": "payable",
      "type": "function"
    },
    {
      "inputs": [
        {
          "internalType": "uint256",
          "name": "_productId",
          "type": "uint256"
        }
      ],
      "name": "getProduct",
      "outputs": [
        {
          "components": [
            {
              "internalType": "uint256",
              "name": "price",
              "type": "uint256"
            },
            {
              "internalType": "uint32",
              "name": "quantity",
              "type": "uint32"
            },
            {
              "internalType": "string",
              "name": "metadata",
              "type": "string"
            }
          ],
          "internalType": "struct Ecommerce.ProductStruct",
          "name": "",
          "type": "tuple"
        }
      ],
      "stateMutability": "view",
      "type": "function"
    },
    {
      "inputs": [
        {
          "internalType": "uint32",
          "name": "_quantity",
          "type": "uint32"
        },
        {
          "internalType": "uint256",
          "name": "_productId",
          "type": "uint256"
        }
      ],
      "name": "updateQuantity",
      "outputs": [],
      "stateMutability": "nonpayable",
      "type": "function"
    }
  ],
  "bytecode": "0x608060405234801561001057600080fd5b5033600160006101000a81548173ffffffffffffffffffffffffffffffffffffffff021916908373ffffffffffffffffffffffffffffffffffffffff160217905550610b2b806100616000396000f3fe60806040526004361061003f5760003560e01c80638642269e14610044578063923a721814610060578063b9db15b414610089578063ec79f4eb146100c6575b600080fd5b61005e60048036038101906100599190610556565b6100ef565b005b34801561006c57600080fd5b50610087600480360381019061008291906105bf565b61019d565b005b34801561009557600080fd5b506100b060048036038101906100ab9190610556565b6101d6565b6040516100bd9190610706565b60405180910390f35b3480156100d257600080fd5b506100ed60048036038101906100e8919061085d565b6102c5565b005b6002600082815260200190815260200160002060000154341461014957346040517faf7e1aab000000000000000000000000000000000000000000000000000000008152600401610140919061090b565b60405180910390fd5b423373ffffffffffffffffffffffffffffffffffffffff167fed1575163391e8e4c8b8873e0a67abd7805ee39f964e751caf32c3008593412e3484604051610192929190610926565b60405180910390a350565b816002600083815260200190815260200160002060010160006101000a81548163ffffffff021916908363ffffffff1602179055505050565b6101de610442565b60026000838152602001908152602001600020604051806060016040529081600082015481526020016001820160009054906101000a900463ffffffff1663ffffffff1663ffffffff16815260200160028201805461023c9061097e565b80601f01602080910402602001604051908101604052809291908181526020018280546102689061097e565b80156102b55780601f1061028a576101008083540402835291602001916102b5565b820191906000526020600020905b81548152906001019060200180831161029857829003601f168201915b5050505050815250509050919050565b600160009054906101000a900473ffffffffffffffffffffffffffffffffffffffff1673ffffffffffffffffffffffffffffffffffffffff163373ffffffffffffffffffffffffffffffffffffffff161461034c576040517fe88d976a00000000000000000000000000000000000000000000000000000000815260040160405180910390fd5b60008081548092919061035e906109df565b919050555060405180606001604052808581526020018463ffffffff1681526020018381525060026000805481526020019081526020016000206000820151816000015560208201518160010160006101000a81548163ffffffff021916908363ffffffff16021790555060408201518160020190805190602001906103e5929190610469565b509050508342826040516103f99190610a64565b60405180910390207f0bb77d0e0ce5caef0bfacd80ad2e68ca13340d38338e094f87bfe190b9c59ebf60005486604051610434929190610ac5565b60405180910390a450505050565b604051806060016040528060008152602001600063ffffffff168152602001606081525090565b8280546104759061097e565b90600052602060002090601f01602090048101928261049757600085556104de565b82601f106104b057805160ff19168380011785556104de565b828001600101855582156104de579182015b828111156104dd5782518255916020019190600101906104c2565b5b5090506104eb91906104ef565b5090565b5b808211156105085760008160009055506001016104f0565b5090565b6000604051905090565b600080fd5b600080fd5b6000819050919050565b61053381610520565b811461053e57600080fd5b50565b6000813590506105508161052a565b92915050565b60006020828403121561056c5761056b610516565b5b600061057a84828501610541565b91505092915050565b600063ffffffff82169050919050565b61059c81610583565b81146105a757600080fd5b50565b6000813590506105b981610593565b92915050565b600080604083850312156105d6576105d5610516565b5b60006105e4858286016105aa565b92505060206105f585828601610541565b9150509250929050565b61060881610520565b82525050565b61061781610583565b82525050565b600081519050919050565b600082825260208201905092915050565b60005b8381101561065757808201518184015260208101905061063c565b83811115610666576000848401525b50505050565b6000601f19601f8301169050919050565b60006106888261061d565b6106928185610628565b93506106a2818560208601610639565b6106ab8161066c565b840191505092915050565b60006060830160008301516106ce60008601826105ff565b5060208301516106e1602086018261060e565b50604083015184820360408601526106f9828261067d565b9150508091505092915050565b6000602082019050818103600083015261072081846106b6565b905092915050565b600080fd5b600080fd5b7f4e487b7100000000000000000000000000000000000000000000000000000000600052604160045260246000fd5b61076a8261066c565b810181811067ffffffffffffffff8211171561078957610788610732565b5b80604052505050565b600061079c61050c565b90506107a88282610761565b919050565b600067ffffffffffffffff8211156107c8576107c7610732565b5b6107d18261066c565b9050602081019050919050565b82818337600083830152505050565b60006108006107fb846107ad565b610792565b90508281526020810184848401111561081c5761081b61072d565b5b6108278482856107de565b509392505050565b600082601f83011261084457610843610728565b5b81356108548482602086016107ed565b91505092915050565b6000806000806080858703121561087757610876610516565b5b600061088587828801610541565b9450506020610896878288016105aa565b935050604085013567ffffffffffffffff8111156108b7576108b661051b565b5b6108c38782880161082f565b925050606085013567ffffffffffffffff8111156108e4576108e361051b565b5b6108f08782880161082f565b91505092959194509250565b61090581610520565b82525050565b600060208201905061092060008301846108fc565b92915050565b600060408201905061093b60008301856108fc565b61094860208301846108fc565b9392505050565b7f4e487b7100000000000000000000000000000000000000000000000000000000600052602260045260246000fd5b6000600282049050600182168061099657607f821691505b602082108114156109aa576109a961094f565b5b50919050565b7f4e487b7100000000000000000000000000000000000000000000000000000000600052601160045260246000fd5b60006109ea82610520565b91507fffffffffffffffffffffffffffffffffffffffffffffffffffffffffffffffff821415610a1d57610a1c6109b0565b5b600182019050919050565b600081905092915050565b6000610a3e8261061d565b610a488185610a28565b9350610a58818560208601610639565b80840191505092915050565b6000610a708284610a33565b915081905092915050565b600082825260208201905092915050565b6000610a978261061d565b610aa18185610a7b565b9350610ab1818560208601610639565b610aba8161066c565b840191505092915050565b6000604082019050610ada60008301856108fc565b8181036020830152610aec8184610a8c565b9050939250505056fea2646970667358221220b82a7267b0ddf531249c8e639135e24e25c1cdc6db9dca90019f79b6dd6ce08e64736f6c634300080a0033",
  "linkReferences": {},
  "deployedLinkReferences": {}
}