{
  "_format": "hh-sol-artifact-1",
  "contractName": "Ecommerce",
  "sourceName": "contracts/Ecommerce.sol",
  "abi": [
    {
      "inputs": [],
      "stateMutability": "nonpayable",
      "type": "constructor"
    },
    {
      "inputs": [
        {
          "internalType": "uint256",
          "name": "_price",
          "type": "uint256"
        }
      ],
      "name": "Ecommerce__PriceNotMet",
      "type": "error"
    },
    {
      "inputs": [],
      "name": "Ecommerce__YouAreNoteOwner",
      "type": "error"
    },
    {
      "anonymous": false,
      "inputs": [
        {
          "indexed": true,
          "internalType": "string",
          "name": "_category",
          "type": "string"
        },
        {
          "indexed": true,
          "internalType": "uint256",
          "name": "_timestamp",
          "type": "uint256"
        },
        {
          "indexed": true,
          "internalType": "uint256",
          "name": "_productId",
          "type": "uint256"
        },
        {
          "indexed": false,
          "internalType": "uint256",
          "name": "_price",
          "type": "uint256"
        },
        {
          "indexed": false,
          "internalType": "string",
          "name": "_metadata",
          "type": "string"
        }
      ],
      "name": "productAdded",
      "type": "event"
    },
    {
      "anonymous": false,
      "inputs": [
        {
          "indexed": true,
          "internalType": "address",
          "name": "buyer",
          "type": "address"
        },
        {
          "indexed": true,
          "internalType": "uint256",
          "name": "timestamp",
          "type": "uint256"
        },
        {
          "indexed": false,
          "internalType": "uint256",
          "name": "_productId",
          "type": "uint256"
        },
        {
          "indexed": false,
          "internalType": "uint256",
          "name": "price",
          "type": "uint256"
        }
      ],
      "name": "productBought",
      "type": "event"
    },
    {
      "inputs": [
        {
          "internalType": "uint256",
          "name": "_price",
          "type": "uint256"
        },
        {
          "internalType": "uint32",
          "name": "_quantity",
          "type": "uint32"
        },
        {
          "internalType": "string",
          "name": "_metadata",
          "type": "string"
        },
        {
          "internalType": "string",
          "name": "_category",
          "type": "string"
        }
      ],
      "name": "addProduct",
      "outputs": [],
      "stateMutability": "nonpayable",
      "type": "function"
    },
    {
      "inputs": [
        {
          "internalType": "uint256",
          "name": "_productId",
          "type": "uint256"
        }
      ],
      "name": "buyProduct",
      "outputs": [],
      "stateMutability": "payable",
      "type": "function"
    },
    {
      "inputs": [],
      "name": "getContractBalance",
      "outputs": [
        {
          "internalType": "uint256",
          "name": "",
          "type": "uint256"
        }
      ],
      "stateMutability": "view",
      "type": "function"
    },
    {
      "inputs": [
        {
          "internalType": "uint256",
          "name": "_productId",
          "type": "uint256"
        }
      ],
      "name": "getProduct",
      "outputs": [
        {
          "components": [
            {
              "internalType": "uint256",
              "name": "price",
              "type": "uint256"
            },
            {
              "internalType": "uint32",
              "name": "quantity",
              "type": "uint32"
            },
            {
              "internalType": "string",
              "name": "metadata",
              "type": "string"
            }
          ],
          "internalType": "struct Ecommerce.ProductStruct",
          "name": "",
          "type": "tuple"
        }
      ],
      "stateMutability": "view",
      "type": "function"
    },
    {
      "inputs": [
        {
          "internalType": "uint32",
          "name": "_quantity",
          "type": "uint32"
        },
        {
          "internalType": "uint256",
          "name": "_productId",
          "type": "uint256"
        }
      ],
      "name": "updateQuantity",
      "outputs": [],
      "stateMutability": "nonpayable",
      "type": "function"
    },
    {
      "inputs": [
        {
          "internalType": "address",
          "name": "_to",
          "type": "address"
        }
      ],
      "name": "withdraw",
      "outputs": [],
      "stateMutability": "payable",
      "type": "function"
    }
  ],
  "bytecode": "0x608060405234801561001057600080fd5b5033600160006101000a81548173ffffffffffffffffffffffffffffffffffffffff021916908373ffffffffffffffffffffffffffffffffffffffff160217905550610cec806100616000396000f3fe6080604052600436106100555760003560e01c806351cff8d91461005a5780636f9fb98a146100765780638642269e146100a1578063923a7218146100bd578063b9db15b4146100e6578063ec79f4eb14610123575b600080fd5b610074600480360381019061006f91906106b4565b61014c565b005b34801561008257600080fd5b5061008b61021d565b60405161009891906106fa565b60405180910390f35b6100bb60048036038101906100b69190610741565b610225565b005b3480156100c957600080fd5b506100e460048036038101906100df91906107aa565b6102d3565b005b3480156100f257600080fd5b5061010d60048036038101906101089190610741565b61030c565b60405161011a91906108f1565b60405180910390f35b34801561012f57600080fd5b5061014a60048036038101906101459190610a48565b6103fb565b005b600160009054906101000a900473ffffffffffffffffffffffffffffffffffffffff1673ffffffffffffffffffffffffffffffffffffffff163373ffffffffffffffffffffffffffffffffffffffff16146101d3576040517fe88d976a00000000000000000000000000000000000000000000000000000000815260040160405180910390fd5b8073ffffffffffffffffffffffffffffffffffffffff166108fc479081150290604051600060405180830381858888f19350505050158015610219573d6000803e3d6000fd5b5050565b600047905090565b6002600082815260200190815260200160002060000154341461027f57346040517faf7e1aab00000000000000000000000000000000000000000000000000000000815260040161027691906106fa565b60405180910390fd5b423373ffffffffffffffffffffffffffffffffffffffff167fed1575163391e8e4c8b8873e0a67abd7805ee39f964e751caf32c3008593412e83346040516102c8929190610ae7565b60405180910390a350565b816002600083815260200190815260200160002060010160006101000a81548163ffffffff021916908363ffffffff1602179055505050565b610314610578565b60026000838152602001908152602001600020604051806060016040529081600082015481526020016001820160009054906101000a900463ffffffff1663ffffffff1663ffffffff16815260200160028201805461037290610b3f565b80601f016020809104026020016040519081016040528092919081815260200182805461039e90610b3f565b80156103eb5780601f106103c0576101008083540402835291602001916103eb565b820191906000526020600020905b8154815290600101906020018083116103ce57829003601f168201915b5050505050815250509050919050565b600160009054906101000a900473ffffffffffffffffffffffffffffffffffffffff1673ffffffffffffffffffffffffffffffffffffffff163373ffffffffffffffffffffffffffffffffffffffff1614610482576040517fe88d976a00000000000000000000000000000000000000000000000000000000815260040160405180910390fd5b60008081548092919061049490610ba0565b919050555060405180606001604052808581526020018463ffffffff1681526020018381525060026000805481526020019081526020016000206000820151816000015560208201518160010160006101000a81548163ffffffff021916908363ffffffff160217905550604082015181600201908051906020019061051b92919061059f565b5090505060005442826040516105319190610c25565b60405180910390207f0bb77d0e0ce5caef0bfacd80ad2e68ca13340d38338e094f87bfe190b9c59ebf878660405161056a929190610c86565b60405180910390a450505050565b604051806060016040528060008152602001600063ffffffff168152602001606081525090565b8280546105ab90610b3f565b90600052602060002090601f0160209004810192826105cd5760008555610614565b82601f106105e657805160ff1916838001178555610614565b82800160010185558215610614579182015b828111156106135782518255916020019190600101906105f8565b5b5090506106219190610625565b5090565b5b8082111561063e576000816000905550600101610626565b5090565b6000604051905090565b600080fd5b600080fd5b600073ffffffffffffffffffffffffffffffffffffffff82169050919050565b600061068182610656565b9050919050565b61069181610676565b811461069c57600080fd5b50565b6000813590506106ae81610688565b92915050565b6000602082840312156106ca576106c961064c565b5b60006106d88482850161069f565b91505092915050565b6000819050919050565b6106f4816106e1565b82525050565b600060208201905061070f60008301846106eb565b92915050565b61071e816106e1565b811461072957600080fd5b50565b60008135905061073b81610715565b92915050565b6000602082840312156107575761075661064c565b5b60006107658482850161072c565b91505092915050565b600063ffffffff82169050919050565b6107878161076e565b811461079257600080fd5b50565b6000813590506107a48161077e565b92915050565b600080604083850312156107c1576107c061064c565b5b60006107cf85828601610795565b92505060206107e08582860161072c565b9150509250929050565b6107f3816106e1565b82525050565b6108028161076e565b82525050565b600081519050919050565b600082825260208201905092915050565b60005b83811015610842578082015181840152602081019050610827565b83811115610851576000848401525b50505050565b6000601f19601f8301169050919050565b600061087382610808565b61087d8185610813565b935061088d818560208601610824565b61089681610857565b840191505092915050565b60006060830160008301516108b960008601826107ea565b5060208301516108cc60208601826107f9565b50604083015184820360408601526108e48282610868565b9150508091505092915050565b6000602082019050818103600083015261090b81846108a1565b905092915050565b600080fd5b600080fd5b7f4e487b7100000000000000000000000000000000000000000000000000000000600052604160045260246000fd5b61095582610857565b810181811067ffffffffffffffff821117156109745761097361091d565b5b80604052505050565b6000610987610642565b9050610993828261094c565b919050565b600067ffffffffffffffff8211156109b3576109b261091d565b5b6109bc82610857565b9050602081019050919050565b82818337600083830152505050565b60006109eb6109e684610998565b61097d565b905082815260208101848484011115610a0757610a06610918565b5b610a128482856109c9565b509392505050565b600082601f830112610a2f57610a2e610913565b5b8135610a3f8482602086016109d8565b91505092915050565b60008060008060808587031215610a6257610a6161064c565b5b6000610a708782880161072c565b9450506020610a8187828801610795565b935050604085013567ffffffffffffffff811115610aa257610aa1610651565b5b610aae87828801610a1a565b925050606085013567ffffffffffffffff811115610acf57610ace610651565b5b610adb87828801610a1a565b91505092959194509250565b6000604082019050610afc60008301856106eb565b610b0960208301846106eb565b9392505050565b7f4e487b7100000000000000000000000000000000000000000000000000000000600052602260045260246000fd5b60006002820490506001821680610b5757607f821691505b60208210811415610b6b57610b6a610b10565b5b50919050565b7f4e487b7100000000000000000000000000000000000000000000000000000000600052601160045260246000fd5b6000610bab826106e1565b91507fffffffffffffffffffffffffffffffffffffffffffffffffffffffffffffffff821415610bde57610bdd610b71565b5b600182019050919050565b600081905092915050565b6000610bff82610808565b610c098185610be9565b9350610c19818560208601610824565b80840191505092915050565b6000610c318284610bf4565b915081905092915050565b600082825260208201905092915050565b6000610c5882610808565b610c628185610c3c565b9350610c72818560208601610824565b610c7b81610857565b840191505092915050565b6000604082019050610c9b60008301856106eb565b8181036020830152610cad8184610c4d565b9050939250505056fea26469706673582212208e5bf81ef635f397d5ef86a712616f0b43af738e1349146aadc4b4d0bd60e93164736f6c634300080a0033",
  "linkReferences": {},
  "deployedLinkReferences": {}
}