{
  "_format": "hh-sol-artifact-1",
  "contractName": "Ecommerce",
  "sourceName": "contracts/Ecommerce.sol",
  "abi": [
    {
      "inputs": [],
      "stateMutability": "nonpayable",
      "type": "constructor"
    },
    {
      "inputs": [
        {
          "internalType": "uint256",
          "name": "_price",
          "type": "uint256"
        }
      ],
      "name": "Ecommerce__PriceNotMet",
      "type": "error"
    },
    {
      "inputs": [],
      "name": "Ecommerce__YouAreNoteOwner",
      "type": "error"
    },
    {
      "anonymous": false,
      "inputs": [
        {
          "indexed": true,
          "internalType": "string",
          "name": "_category",
          "type": "string"
        },
        {
          "indexed": true,
          "internalType": "uint256",
          "name": "_timestamp",
          "type": "uint256"
        },
        {
          "indexed": true,
          "internalType": "uint256",
          "name": "_productId",
          "type": "uint256"
        },
        {
          "indexed": false,
          "internalType": "uint256",
          "name": "_price",
          "type": "uint256"
        },
        {
          "indexed": false,
          "internalType": "string",
          "name": "_metadata",
          "type": "string"
        }
      ],
      "name": "productAdded",
      "type": "event"
    },
    {
      "anonymous": false,
      "inputs": [
        {
          "indexed": true,
          "internalType": "address",
          "name": "buyer",
          "type": "address"
        },
        {
          "indexed": true,
          "internalType": "uint256",
          "name": "timestamp",
          "type": "uint256"
        },
        {
          "indexed": false,
          "internalType": "uint256",
          "name": "_productId",
          "type": "uint256"
        },
        {
          "indexed": false,
          "internalType": "uint256",
          "name": "price",
          "type": "uint256"
        },
        {
          "indexed": false,
          "internalType": "string",
          "name": "metadata",
          "type": "string"
        }
      ],
      "name": "productBought",
      "type": "event"
    },
    {
      "inputs": [
        {
          "internalType": "uint256",
          "name": "_price",
          "type": "uint256"
        },
        {
          "internalType": "uint32",
          "name": "_quantity",
          "type": "uint32"
        },
        {
          "internalType": "string",
          "name": "_metadata",
          "type": "string"
        },
        {
          "internalType": "string",
          "name": "_category",
          "type": "string"
        }
      ],
      "name": "addProduct",
      "outputs": [],
      "stateMutability": "nonpayable",
      "type": "function"
    },
    {
      "inputs": [
        {
          "internalType": "uint256",
          "name": "_productId",
          "type": "uint256"
        }
      ],
      "name": "buyProduct",
      "outputs": [],
      "stateMutability": "payable",
      "type": "function"
    },
    {
      "inputs": [],
      "name": "getContractBalance",
      "outputs": [
        {
          "internalType": "uint256",
          "name": "",
          "type": "uint256"
        }
      ],
      "stateMutability": "view",
      "type": "function"
    },
    {
      "inputs": [
        {
          "internalType": "uint256",
          "name": "_productId",
          "type": "uint256"
        }
      ],
      "name": "getProduct",
      "outputs": [
        {
          "components": [
            {
              "internalType": "uint256",
              "name": "price",
              "type": "uint256"
            },
            {
              "internalType": "uint32",
              "name": "quantity",
              "type": "uint32"
            },
            {
              "internalType": "string",
              "name": "metadata",
              "type": "string"
            }
          ],
          "internalType": "struct Ecommerce.ProductStruct",
          "name": "",
          "type": "tuple"
        }
      ],
      "stateMutability": "view",
      "type": "function"
    },
    {
      "inputs": [
        {
          "internalType": "uint32",
          "name": "_quantity",
          "type": "uint32"
        },
        {
          "internalType": "uint256",
          "name": "_productId",
          "type": "uint256"
        }
      ],
      "name": "updateQuantity",
      "outputs": [],
      "stateMutability": "nonpayable",
      "type": "function"
    },
    {
      "inputs": [
        {
          "internalType": "address",
          "name": "_to",
          "type": "address"
        }
      ],
      "name": "withdraw",
      "outputs": [],
      "stateMutability": "payable",
      "type": "function"
    }
  ],
  "bytecode": "0x608060405234801561001057600080fd5b5033600160006101000a81548173ffffffffffffffffffffffffffffffffffffffff021916908373ffffffffffffffffffffffffffffffffffffffff160217905550610da7806100616000396000f3fe6080604052600436106100555760003560e01c806351cff8d91461005a5780636f9fb98a146100765780638642269e146100a1578063923a7218146100bd578063b9db15b4146100e6578063ec79f4eb14610123575b600080fd5b610074600480360381019061006f919061075a565b61014c565b005b34801561008257600080fd5b5061008b61021d565b60405161009891906107a0565b60405180910390f35b6100bb60048036038101906100b691906107e7565b610225565b005b3480156100c957600080fd5b506100e460048036038101906100df9190610850565b610379565b005b3480156100f257600080fd5b5061010d600480360381019061010891906107e7565b6103b2565b60405161011a9190610997565b60405180910390f35b34801561012f57600080fd5b5061014a60048036038101906101459190610aee565b6104a1565b005b600160009054906101000a900473ffffffffffffffffffffffffffffffffffffffff1673ffffffffffffffffffffffffffffffffffffffff163373ffffffffffffffffffffffffffffffffffffffff16146101d3576040517fe88d976a00000000000000000000000000000000000000000000000000000000815260040160405180910390fd5b8073ffffffffffffffffffffffffffffffffffffffff166108fc479081150290604051600060405180830381858888f19350505050158015610219573d6000803e3d6000fd5b5050565b600047905090565b6002600082815260200190815260200160002060000154341461027f57346040517faf7e1aab00000000000000000000000000000000000000000000000000000000815260040161027691906107a0565b60405180910390fd5b60006002600083815260200190815260200160002060020180546102a290610bbc565b80601f01602080910402602001604051908101604052809291908181526020018280546102ce90610bbc565b801561031b5780601f106102f05761010080835404028352916020019161031b565b820191906000526020600020905b8154815290600101906020018083116102fe57829003601f168201915b50505050509050423373ffffffffffffffffffffffffffffffffffffffff167f0a11095d165b5fd30537fe537d9f797c4b3a88f5cfdda4179d6e00ee6e91385884348560405161036d93929190610c38565b60405180910390a35050565b816002600083815260200190815260200160002060010160006101000a81548163ffffffff021916908363ffffffff1602179055505050565b6103ba61061e565b60026000838152602001908152602001600020604051806060016040529081600082015481526020016001820160009054906101000a900463ffffffff1663ffffffff1663ffffffff16815260200160028201805461041890610bbc565b80601f016020809104026020016040519081016040528092919081815260200182805461044490610bbc565b80156104915780601f1061046657610100808354040283529160200191610491565b820191906000526020600020905b81548152906001019060200180831161047457829003601f168201915b5050505050815250509050919050565b600160009054906101000a900473ffffffffffffffffffffffffffffffffffffffff1673ffffffffffffffffffffffffffffffffffffffff163373ffffffffffffffffffffffffffffffffffffffff1614610528576040517fe88d976a00000000000000000000000000000000000000000000000000000000815260040160405180910390fd5b60008081548092919061053a90610ca5565b919050555060405180606001604052808581526020018463ffffffff1681526020018381525060026000805481526020019081526020016000206000820151816000015560208201518160010160006101000a81548163ffffffff021916908363ffffffff16021790555060408201518160020190805190602001906105c1929190610645565b5090505060005442826040516105d79190610d2a565b60405180910390207f0bb77d0e0ce5caef0bfacd80ad2e68ca13340d38338e094f87bfe190b9c59ebf8786604051610610929190610d41565b60405180910390a450505050565b604051806060016040528060008152602001600063ffffffff168152602001606081525090565b82805461065190610bbc565b90600052602060002090601f01602090048101928261067357600085556106ba565b82601f1061068c57805160ff19168380011785556106ba565b828001600101855582156106ba579182015b828111156106b957825182559160200191906001019061069e565b5b5090506106c791906106cb565b5090565b5b808211156106e45760008160009055506001016106cc565b5090565b6000604051905090565b600080fd5b600080fd5b600073ffffffffffffffffffffffffffffffffffffffff82169050919050565b6000610727826106fc565b9050919050565b6107378161071c565b811461074257600080fd5b50565b6000813590506107548161072e565b92915050565b6000602082840312156107705761076f6106f2565b5b600061077e84828501610745565b91505092915050565b6000819050919050565b61079a81610787565b82525050565b60006020820190506107b56000830184610791565b92915050565b6107c481610787565b81146107cf57600080fd5b50565b6000813590506107e1816107bb565b92915050565b6000602082840312156107fd576107fc6106f2565b5b600061080b848285016107d2565b91505092915050565b600063ffffffff82169050919050565b61082d81610814565b811461083857600080fd5b50565b60008135905061084a81610824565b92915050565b60008060408385031215610867576108666106f2565b5b60006108758582860161083b565b9250506020610886858286016107d2565b9150509250929050565b61089981610787565b82525050565b6108a881610814565b82525050565b600081519050919050565b600082825260208201905092915050565b60005b838110156108e85780820151818401526020810190506108cd565b838111156108f7576000848401525b50505050565b6000601f19601f8301169050919050565b6000610919826108ae565b61092381856108b9565b93506109338185602086016108ca565b61093c816108fd565b840191505092915050565b600060608301600083015161095f6000860182610890565b506020830151610972602086018261089f565b506040830151848203604086015261098a828261090e565b9150508091505092915050565b600060208201905081810360008301526109b18184610947565b905092915050565b600080fd5b600080fd5b7f4e487b7100000000000000000000000000000000000000000000000000000000600052604160045260246000fd5b6109fb826108fd565b810181811067ffffffffffffffff82111715610a1a57610a196109c3565b5b80604052505050565b6000610a2d6106e8565b9050610a3982826109f2565b919050565b600067ffffffffffffffff821115610a5957610a586109c3565b5b610a62826108fd565b9050602081019050919050565b82818337600083830152505050565b6000610a91610a8c84610a3e565b610a23565b905082815260208101848484011115610aad57610aac6109be565b5b610ab8848285610a6f565b509392505050565b600082601f830112610ad557610ad46109b9565b5b8135610ae5848260208601610a7e565b91505092915050565b60008060008060808587031215610b0857610b076106f2565b5b6000610b16878288016107d2565b9450506020610b278782880161083b565b935050604085013567ffffffffffffffff811115610b4857610b476106f7565b5b610b5487828801610ac0565b925050606085013567ffffffffffffffff811115610b7557610b746106f7565b5b610b8187828801610ac0565b91505092959194509250565b7f4e487b7100000000000000000000000000000000000000000000000000000000600052602260045260246000fd5b60006002820490506001821680610bd457607f821691505b60208210811415610be857610be7610b8d565b5b50919050565b600082825260208201905092915050565b6000610c0a826108ae565b610c148185610bee565b9350610c248185602086016108ca565b610c2d816108fd565b840191505092915050565b6000606082019050610c4d6000830186610791565b610c5a6020830185610791565b8181036040830152610c6c8184610bff565b9050949350505050565b7f4e487b7100000000000000000000000000000000000000000000000000000000600052601160045260246000fd5b6000610cb082610787565b91507fffffffffffffffffffffffffffffffffffffffffffffffffffffffffffffffff821415610ce357610ce2610c76565b5b600182019050919050565b600081905092915050565b6000610d04826108ae565b610d0e8185610cee565b9350610d1e8185602086016108ca565b80840191505092915050565b6000610d368284610cf9565b915081905092915050565b6000604082019050610d566000830185610791565b8181036020830152610d688184610bff565b9050939250505056fea264697066735822122098a78c048a00b8794a9509dcb7a66d4ba197be12c71f75ae2264b5a67c34cd4b64736f6c634300080a0033",
  "linkReferences": {},
  "deployedLinkReferences": {}
}