{
  "_format": "hh-sol-artifact-1",
  "contractName": "Ecommerce",
  "sourceName": "contracts/Ecommerce.sol",
  "abi": [
    {
      "inputs": [],
      "name": "Ecommerce__YouAreNoteOwner",
      "type": "error"
    },
    {
      "anonymous": false,
      "inputs": [
        {
          "indexed": true,
          "internalType": "string",
          "name": "_category",
          "type": "string"
        },
        {
          "indexed": true,
          "internalType": "address",
          "name": "productAddress",
          "type": "address"
        },
        {
          "indexed": true,
          "internalType": "uint256",
          "name": "_timestamp",
          "type": "uint256"
        },
        {
          "indexed": false,
          "internalType": "uint256",
          "name": "price",
          "type": "uint256"
        },
        {
          "indexed": false,
          "internalType": "string",
          "name": "metadataUrl",
          "type": "string"
        }
      ],
      "name": "productAdded",
      "type": "event"
    },
    {
      "inputs": [
        {
          "internalType": "uint256",
          "name": "_price",
          "type": "uint256"
        },
        {
          "internalType": "uint32",
          "name": "_quantity",
          "type": "uint32"
        },
        {
          "internalType": "string",
          "name": "_metadata",
          "type": "string"
        },
        {
          "internalType": "string",
          "name": "_category",
          "type": "string"
        }
      ],
      "name": "addProduct",
      "outputs": [],
      "stateMutability": "nonpayable",
      "type": "function"
    }
  ],
  "bytecode": "0x608060405234801561001057600080fd5b50610f04806100206000396000f3fe60806040523480156200001157600080fd5b50600436106200002e5760003560e01c8063ec79f4eb1462000033575b600080fd5b6200005160048036038101906200004b91906200036c565b62000053565b005b3073ffffffffffffffffffffffffffffffffffffffff163373ffffffffffffffffffffffffffffffffffffffff1614620000b9576040517fe88d976a00000000000000000000000000000000000000000000000000000000815260040160405180910390fd5b6000848484604051620000cc906200016c565b620000da93929190620004d1565b604051809103906000f080158015620000f7573d6000803e3d6000fd5b509050428173ffffffffffffffffffffffffffffffffffffffff168360405162000122919062000557565b60405180910390207f1e8be169c8989b7d47c3dcd39373a36b85c2f6be43e92ed61675612f9f9f05e788876040516200015d92919062000570565b60405180910390a45050505050565b61092a80620005a583390190565b6000604051905090565b600080fd5b600080fd5b6000819050919050565b620001a3816200018e565b8114620001af57600080fd5b50565b600081359050620001c38162000198565b92915050565b600063ffffffff82169050919050565b620001e481620001c9565b8114620001f057600080fd5b50565b6000813590506200020481620001d9565b92915050565b600080fd5b600080fd5b6000601f19601f8301169050919050565b7f4e487b7100000000000000000000000000000000000000000000000000000000600052604160045260246000fd5b6200025f8262000214565b810181811067ffffffffffffffff8211171562000281576200028062000225565b5b80604052505050565b6000620002966200017a565b9050620002a4828262000254565b919050565b600067ffffffffffffffff821115620002c757620002c662000225565b5b620002d28262000214565b9050602081019050919050565b82818337600083830152505050565b600062000305620002ff84620002a9565b6200028a565b9050828152602081018484840111156200032457620003236200020f565b5b62000331848285620002df565b509392505050565b600082601f8301126200035157620003506200020a565b5b813562000363848260208601620002ee565b91505092915050565b6000806000806080858703121562000389576200038862000184565b5b60006200039987828801620001b2565b9450506020620003ac87828801620001f3565b935050604085013567ffffffffffffffff811115620003d057620003cf62000189565b5b620003de8782880162000339565b925050606085013567ffffffffffffffff81111562000402576200040162000189565b5b620004108782880162000339565b91505092959194509250565b62000427816200018e565b82525050565b6200043881620001c9565b82525050565b600081519050919050565b600082825260208201905092915050565b60005b838110156200047a5780820151818401526020810190506200045d565b838111156200048a576000848401525b50505050565b60006200049d826200043e565b620004a9818562000449565b9350620004bb8185602086016200045a565b620004c68162000214565b840191505092915050565b6000606082019050620004e860008301866200041c565b620004f760208301856200042d565b81810360408301526200050b818462000490565b9050949350505050565b600081905092915050565b60006200052d826200043e565b62000539818562000515565b93506200054b8185602086016200045a565b80840191505092915050565b600062000565828462000520565b915081905092915050565b60006040820190506200058760008301856200041c565b81810360208301526200059b818462000490565b9050939250505056fe60806040523480156200001157600080fd5b506040516200092a3803806200092a83398181016040528101906200003791906200037e565b60405180606001604052808481526020018363ffffffff16815260200182815250600080820151816000015560208201518160010160006101000a81548163ffffffff021916908363ffffffff1602179055506040820151816002019080519060200190620000a8929190620000b5565b509050505050506200045e565b828054620000c39062000428565b90600052602060002090601f016020900481019282620000e7576000855562000133565b82601f106200010257805160ff191683800117855562000133565b8280016001018555821562000133579182015b828111156200013257825182559160200191906001019062000115565b5b50905062000142919062000146565b5090565b5b808211156200016157600081600090555060010162000147565b5090565b6000604051905090565b600080fd5b600080fd5b6000819050919050565b6200018e8162000179565b81146200019a57600080fd5b50565b600081519050620001ae8162000183565b92915050565b600063ffffffff82169050919050565b620001cf81620001b4565b8114620001db57600080fd5b50565b600081519050620001ef81620001c4565b92915050565b600080fd5b600080fd5b6000601f19601f8301169050919050565b7f4e487b7100000000000000000000000000000000000000000000000000000000600052604160045260246000fd5b6200024a82620001ff565b810181811067ffffffffffffffff821117156200026c576200026b62000210565b5b80604052505050565b60006200028162000165565b90506200028f82826200023f565b919050565b600067ffffffffffffffff821115620002b257620002b162000210565b5b620002bd82620001ff565b9050602081019050919050565b60005b83811015620002ea578082015181840152602081019050620002cd565b83811115620002fa576000848401525b50505050565b600062000317620003118462000294565b62000275565b905082815260208101848484011115620003365762000335620001fa565b5b62000343848285620002ca565b509392505050565b600082601f830112620003635762000362620001f5565b5b81516200037584826020860162000300565b91505092915050565b6000806000606084860312156200039a57620003996200016f565b5b6000620003aa868287016200019d565b9350506020620003bd86828701620001de565b925050604084015167ffffffffffffffff811115620003e157620003e062000174565b5b620003ef868287016200034b565b9150509250925092565b7f4e487b7100000000000000000000000000000000000000000000000000000000600052602260045260246000fd5b600060028204905060018216806200044157607f821691505b60208210811415620004585762000457620003f9565b5b50919050565b6104bc806200046e6000396000f3fe6080604052600436106100345760003560e01c80634ba20050146100395780639ada9b7b14610064578063acc2f3891461006e575b600080fd5b34801561004557600080fd5b5061004e610097565b60405161005b919061037b565b60405180910390f35b61006c610173565b005b34801561007a57600080fd5b50610095600480360381019061009091906103ce565b61020c565b005b61009f610233565b6000604051806060016040529081600082015481526020016001820160009054906101000a900463ffffffff1663ffffffff1663ffffffff1681526020016002820180546100ec9061042a565b80601f01602080910402602001604051908101604052809291908181526020018280546101189061042a565b80156101655780601f1061013a57610100808354040283529160200191610165565b820191906000526020600020905b81548152906001019060200180831161014857829003601f168201915b505050505081525050905090565b600080015434146101bb57346040517fe09b3c5f0000000000000000000000000000000000000000000000000000000081526004016101b2919061046b565b60405180910390fd5b423373ffffffffffffffffffffffffffffffffffffffff167fa9ac392bdaf179d4faec98fc37ddb0fc621369787bf0d32299ef4b9fc9faf49034604051610202919061046b565b60405180910390a3565b80600060010160006101000a81548163ffffffff021916908363ffffffff16021790555050565b604051806060016040528060008152602001600063ffffffff168152602001606081525090565b6000819050919050565b61026d8161025a565b82525050565b600063ffffffff82169050919050565b61028c81610273565b82525050565b600081519050919050565b600082825260208201905092915050565b60005b838110156102cc5780820151818401526020810190506102b1565b838111156102db576000848401525b50505050565b6000601f19601f8301169050919050565b60006102fd82610292565b610307818561029d565b93506103178185602086016102ae565b610320816102e1565b840191505092915050565b60006060830160008301516103436000860182610264565b5060208301516103566020860182610283565b506040830151848203604086015261036e82826102f2565b9150508091505092915050565b60006020820190508181036000830152610395818461032b565b905092915050565b600080fd5b6103ab81610273565b81146103b657600080fd5b50565b6000813590506103c8816103a2565b92915050565b6000602082840312156103e4576103e361039d565b5b60006103f2848285016103b9565b91505092915050565b7f4e487b7100000000000000000000000000000000000000000000000000000000600052602260045260246000fd5b6000600282049050600182168061044257607f821691505b60208210811415610456576104556103fb565b5b50919050565b6104658161025a565b82525050565b6000602082019050610480600083018461045c565b9291505056fea2646970667358221220d0fe5e0bfddcdbd31f723943b64751b2b2fd2a4965c0d5d8d4f10bcddb8ff3c864736f6c63430008090033a264697066735822122084026a2174911e927b099b8315cd13388a2ddfe117cbe1277b154eb314ca3cb464736f6c63430008090033",
  "linkReferences": {},
  "deployedLinkReferences": {}
}